S01600004964726F706F6E69635F776966692E7372656359
S31508000000A8050020A92E0008192D00081B2D000898
S315080000101D2D00081F2D0008212D000800000000D6
S31508000020000000000000000000000000232D00086A
S31508000030252D000800000000272D0008292D00089E
S31508000040CB2E0008CF2E0008D32E0008312D00082D
S31508000050D72E0008DB2E0008352D0008DF2E0008F5
S31508000060E32E0008E72E0008332D0008EB2E0008C3
S31508000070EF2E0008F32E0008F72E0008FB2E0008C6
S31508000080FF2E0008032F0008072F00080B2F000873
S315080000900F2F0008132F0008172F0008372D000808
S315080000A01B2F0008392D00081F2F0008232F0008D2
S315080000B0272F00082B2F00082F2F0008332F0008A2
S315080000C0372F00083B2F00083F2F0008432F000852
S315080000D03B2D00083D2D0008472F00084B2F000830
S315080000E0A52D0008A72D00084F2F00082DE9F84F69
S315080000F074A7A2B0D7E90045CDE900452C9EDFF8E4
S31508000100307C04918DF843605FF000016FA40D9177
S3150800011012944FF0FF368246904699460FE0C34642
S315080001202C461BF8011B0498D0470028049000F0C1
S31508000130B2800D98401C641E0D90F2D1A84498F820
S315080001400000252807D100210791089109910A91F5
S315080001500B910C910DE06A463146404600F0D0FFFF
S31508000160050001D10D98B5E0D9D50125E6E741F09E
S31508000170010118F8010F2028F9D023280CD02B28C4
S3150800018004D02D2805D0302809D086E041F0020198
S31508000190EFE741F00401ECE741F00801E9E741F037
S315080001A01001E6E700200F900AE00F98B84205DA3A
S315080001B000EB800302EB4302303A0F9208F1010884
S315080001C098F80020A2F130000A28EED398F800002B
S315080001D02E2818BF0E9629D118F8010F2A280BD1F8
S315080001E0D9F80000C9F8000008F1010850F8042BF6
S315080001F0C9F800000E9219E02D280CBF18F8010B5B
S31508000200002000220E920BE040B90E9ABA4205DA97
S3150800021002EB820403EB4403303B0E9308F101081A
S3150800022098F80030A3F130020A2AEDD3ADF8401051
S31508000230129898F8001000F06DFF08B118F8010B35
S315080002408DF842009DF84200682804BF98F800100F
S31508000250682903D162208DF8420008E06C2804BFA3
S3150800026098F800006C2804D171218DF8421008F125
S31508000270010813A806904A4618F8013B02A95046F9
S3150800028000F068F838B913AA02A9504600F0CAF96E
S3150800029000287FF554AF30461CE02A2882D1D9F8C9
S315080002A00020C9F8002052F8040BC9F800200028DD
S315080002B00F9003D540420F9041F0040108F1010860
S315080002C084E700000000000000000000686A6C7403
S315080002D07A4C000023B0BDE8F08F622820D0682849
S315080002E011D06A2803D06C2827D0712825D1086830
S315080002F0C01D20F007000860D0E900230830086018
S31508000300194610467047002A0A680A60106803D022
S31508000310121D0A6000B217E0121D0A6080B217E0CB
S31508000320002A0A680A60106803D0121D0A6040B2E3
S315080003300AE0121D0A60C0B20AE0002A0A680A60CA
S31508000340106803D0121D0A60C1177047121D0A6093
S31508000350002170477CB50D4611461C462E69B4F13E
S31508000360250200F04D811C3A00F08680121F022AF1
S3150800037040F282800E3A00F00781521F5AD0093A9D
S315080003807AD0921E16D0521E35D0521E022A73D922
S31508000390121F30D0521F00F09A80521E4AD0521EA9
S315080003A000F0E480D21E00F0FD80921E42D0D21EDC
S315080003B040D02BE195F83A206C2A09D06869421C8E
S315080003C06A610A680A6052F8043B0A60335427E1F6
S315080003D00A680A6052F8043B0A60002100930191FA
S315080003E04FF0FF322A6329466A4600F096F900283C
S315080003F040F1168101E195F83A000122FFF76DFFF9
S31508000400C5E900010023994204DA6869411C69615B
S315080004102D210DE0288F810704D56869411C696183
S315080004202B2105E0C00722D56869411C6961202196
S3150800043031541CE095F83A000022FFF74EFFC5E953
S31508000440000195F83800010711D5D5E900230020E9
S31508000450834208BF82420AD044F02000782806D199
S31508000460686930213154401C411C69613454214665
S3150800047068693044E86083E00868C01D20F007001A
S315080004800860D0E9002308300860C5E90023D5E9EB
S315080004900001C80F04D06869411C69612D210DE06F
S315080004A0288F810704D56869411C69612B2105E0FD
S315080004B0C00704D56869411C6961202131546869FF
S315080004C03044E8602146284600F032FAA8E005F1F3
S315080004D03A02507820B14FF0FF340FF6243070E01E
S315080004E01078622808D0682824D06A2812D06C2888
S315080004F02ED071280ED02BE00A680A6052F8040B39
S315080005000A6020B94FF0FF340FF60C3059E0E96A5B
S31508000510017085E00A680A6052F8040B0A6020B97F
S315080005204FF0FF340FF6F0204BE0EA6AD317C0E924
S31508000530002375E00A680A6052F8040B0A6020B9BD
S315080005404FF0FF340FF6D0203BE0E96A018067E000
S315080005500A680A6052F8040B0A6020B94FF0FF34A3
S315080005600FF6B4202DE0E96A016059E00A680A60CE
S3150800057052F8040B0A600021C5E90001EE607821F3
S31508000580284600F029F94BE06C2285F83A200B68DA
S315080005900B6053F8042B0B6052BB4FF0FF340FF679
S315080005A0AC200EE095F83A206C2AF0D0086808606E
S315080005B050F8044B0860EC603CB94FF0FF340FF676
S315080005C0702000F0B7FD201A76BD2E6B002E04D5DC
S315080005D0204600F0CFFD044608E0324600212046BA
S315080005E000F0E4FD002814BF041B3446AC6117E094
S315080005F0294600F092F8002812D54FF0FF3076BD54
S315080006006869411C69612521315409E06969481CFA
S31508000610686125227254210002D0411C6961345454
S31508000620002076BD2DE9F0410E460546716B7069CE
S31508000630B46A091A306A091AB069091A706A091A75
S31508000640F069091A96F838000C1B410790460DD434
S31508000650002C0BDD2746B0682021A8470028B0608B
S3150800066057D0F06A401C7F1EF062F4D17369424687
S315080006703146284600F0ACFC00284AD1376A002FDC
S315080006800ADDB0683021A8470028B06041D0F06A7A
S31508000690401C7F1EF062F4D1B369F26831462846E1
S315080006A000F096FCA8BB776A002F09DDB0683021F8
S315080006B0A847B06068B3F06A401C7F1EF062F5D1A7
S315080006C0F068B169F36942183146284600F080FCA3
S315080006D0F8B9B76A002F09DDB0683021A847B060BD
S315080006E0B8B1F06A401C7F1EF062F5D196F8380062
S315080006F041070BD5002C09DDB0682021A847B0605A
S3150800070038B1F06A401C641EF062F5D10020BDE8DD
S31508000710F0814FF0FF30BDE8F0812DE9F8470D462E
S31508000720A3B02F6B002F8146904648BF6FF0004755
S3150800073000F068FD696B40180FF62C118128D1E985
S315080007400023CDE9012328BF4FF0FF303ED2002415
S31508000750002F2FDDD8F8001001AA684600F0D2FC59
S315080007600646002E35D4D8F8000008B9761E30D4CF
S31508000770B7421FDB6869301881280AD300206863EE
S3150800078003AA29464846FFF74DFF040012D4002065
S31508000790686103A8D5F814A032466946504400F0AB
S315080007A037FDB244C5F814A058F8040B002818BF42
S315080007B0BF1BCDD12CB903AA29464846FFF732FFFD
S315080007C0044614B9002068616863204624B0BDE871
S315080007D0F0874FF0FF34F8E72DE9FC4707468A46CD
S315080007E03E69BAF16F0F08BF082405D04AF0200108
S315080007F0782914BF0A2410243C25D7E90023BAF126
S31508000800640F18BFBAF1690F9046994606D10021C0
S315080008108B4203DAD8F1000869EB490900208145C3
S3150800082008BF80451FD1386BE8B9082C4CD197F81A
S315080008303800010748D530203B2586F83B0043E0C1
S3150800084000280ED597F8380000F01400102808D1B3
S315080008507A6B7869121A386A121A511A0029C8BFAF
S315080008603962BDE8F3878DF800A04046494622461E
S31508000870E31700F021FD3032D0B26D1E3A280195FB
S3150800088004DB9DF80000A0F151018A187255404614
S3150800089049462246E31700F00FFD804689460020A8
S315080008A0814508BF804503D0F86871198842DCD3B2
S315080008B0082C09D197F83800010705D5715D30294C
S315080008C002D06D1E30207055C5F13C01B961701912
S315080008D0F860386B8142B3DA411A39624FF6EF7025
S315080008E0398F01403987BDE8F3872DE9D04306469D
S315080008F00F4614464FF00008DFF8389412E0E00778
S3150800090007D542464B463046394600F0EDFD0646C9
S315080009100F464046494642464B4600F0E5FD641000
S3150800092080468946002CEAD130463946BDE8D08350
S315080009302DE9F34F054641F020048DB0D5E900892D
S31508000940612C02AE09D0286B002848BF062003D4C4
S3150800095008BF672C01D101202863D5E90023580078
S315080009604015401C0ED119030CD00320A8619DF830
S31508000970380061381A2802D20FF2F46111E00FF23A
S31508000980F4610EE058004015401C0FD119030DD133
S315080009900320A8619DF8380061381A2814D30FF28D
S315080009A0DC61E868032200F033FCD3E1194621F044
S315080009B00043B3F5801F10460DD20027BB4208BF7F
S315080009C0BA42019703D111E00FF2AC61E9E701AA37
S315080009D000F05CFE0AE0DFF8607307EB1352DFF8FD
S315080009E05C3301921940DFF858331943C5E9000111
S315080009F0612C0ED1E86830210170811CE9609DF8F0
S31508000A00381061290CBF7821582141706869801C0B
S31508000A106861D5E900AB2BF0004300202AF00002FC
S31508000A20834204BF8242002300F05A81612C40F0C1
S31508000A30A980286B00284CBF2120401C0090404606
S31508000A40009F7F1C49460022002300F057FED94626
S31508000A5001988DF8082038BF89F00049001F0190D9
S31508000A60002FD0460DF1090040F3498140F2FF718D
S31508000A70DFF8D0B20C9106464046494600220023CC
S31508000A8000F054FE80F03A814800400D00F11C0247
S31508000A9010D0002A0EDD0C98824205DB09F00040D2
S31508000AA040EA0B01002013E0A448084040EA02513E
S31508000AB040460DE029F00043002028F0000283425A
S31508000AC008BF82420FBF40461C22404600F046FE41
S31508000AD08046894600F0E0FEFF1F002F044609DD28
S31508000AE000F0F8FE02460B464046494600F004FF71
S31508000AF080468946F01D072104E004F00F0200F83D
S31508000B00012D2411002C01DD491EF6D5491E5CBFB6
S31508000B10002200F8012DF9D5ECE00020194602AABA
S31508000B200A4400E05B1E12F80149491E8442F9D0C6
S31508000B300F2804D10DF10900425C521C42540029C9
S31508000B4004D50198001D02AE5B1C0190591E12D4F3
S31508000B509DF838007218147804F130085FFA88F4A2
S31508000B60392CC4BFA0F13A04A044491E02F80189F1
S31508000B70F1D58DF83800286B002840F1B080591E51
S31508000B802963ACE0404649460022002300F0B6FD42
S31508000B90019938BF89F0004947F2975041436A4A9C
S31508000BA091FBF2F20192D2F1070204DD4046494672
S31508000BB0FFF79BFE0AE0524200206449FFF795FEC4
S31508000BC002460B464046494600F008FF8046662C1A
S31508000BD0286BDFF87CB106BF019F0A3706273F1846
S31508000BE0142FC8BF142730208DF8080089460DF148
S31508000BF0090000E03046002F34DD064640464946E7
S31508000C0001F010F801460A4606F1080304200A26F0
S31508000C10B2FBF6F606EB860EA2EB4E02303203F86E
S31508000C20012C0A22B6FBF2F202EB820EA6EB4E0666
S31508000C303036401E03F8026DE9D1083F002F03F154
S31508000C400806D7DD084601F001F802460B4640467D
S31508000C50494600F051FE00225B4600F045FC8046FE
S31508000C608946CBE70DF10901401A0DF1090604E0A2
S31508000C700199491E401E0191761C31783029F7D01A
S31508000C80662C02D10199491C03E0652C0CBF012191
S31508000C9000212B6BCB189842B8BF431E002B1ED4DD
S31508000CA0834204DAF05C3528A8BF392000DA302000
S31508000CB01946721E02EB010800E05B1E18F801993E
S31508000CC0491E8145F9D0392802D1705C401C705400
S31508000CD0002904D50198401C16465B1C0190019812
S31508000CE000B200901BB29DF838103246284600F034
S31508000CF035F82FE0C61D002F3FF7BEAE30460DF182
S31508000D000901401A009903468842C8BF0B46002BC2
S31508000D100DF109063FF52FAF8342BFF6FEAE0DF182
S31508000D200900C05C07287FF7F8AE0F20F6E600003A
S31508000D30CBCCCC0C0000244002FCFFFFFFFF0F8049
S31508000D400000E03F0000F07FA08601000000F03FB1
S31508000D5084D797410FB0BDE8F08F00002DE9F8471A
S31508000D6083B006468A461746984600F0CDF9B8F18C
S31508000D70000F406A356B90F8009002DC4FF00108CE
S31508000D80BFA7BDF930404AF02000662808BF641C9A
S31508000D9015D0672840F0848014F1040FC0F28680CD
S31508000DA0AC4280F2838096F83800641C010702D4AE
S31508000DB0A845B8BF454620B22D1A48BF00250FFAE8
S31508000DC084FAF068B169BAF1000F25DC4A1C3023B1
S31508000DD04354002D03DC96F83800010703D5F06864
S31508000DE000F80290521C15EB0A0FB8BF6C4220B2ED
S31508000DF0441941424445B8BFA046B26171620FFA30
S31508000E0088F5F561F068B3692A463946184400F052
S31508000E10FFF9641BB462C4E022B29045084417DAAD
S31508000E204246394600F0F4F9B0694044B061AAEB8D
S31508000E300801002D716203DC96F838100A0705D5FB
S31508000E40F16801F80090F069401CF061B562A8E00D
S31508000E50394600F0DDF9B069002D5044A8EB0408C6
S31508000E6003DC96F838100A0703D5F16801F80090F4
S31508000E70401CB0610FFA88F08542F068B369B8BFC4
S31508000E80A8460FFA88F207EB0A01184400F0C0F9E1
S31508000E90B0690FFA88F10844B061681A706280E098
S31508000EA0BAF1610F14D14FF0700A16E0A84504DABA
S31508000EB096F838100A0758BF45466D1E48BF0025E4
S31508000EC0BAF1670F14BF4FF0450A4FF0650A04E000
S31508000ED0BAF1410F08BF4FF0500AB169F368481CD0
S31508000EE0B061002D17F8012B5A5403DC96F8381018
S31508000EF00A071BD5F168431CB36101F80090002D61
S31508000F0014DDA8F101080FFA88F08542F068B8BF29
S31508000F10A8460FFA88F23946184400F079F9B069FC
S31508000F200FFA88F108446D1AB0617562F068B16904
S31508000F300844002C80F800A003D42B214170811CA2
S31508000F4003E02D2141706442811C00206A460AE0B4
S31508000F5023460A2493FBF4F404EB8405A3EB450328
S31508000F6002F8013B401C24B2002CF1DC012806DC07
S31508000F704AF02002652A04BF302201F8012B48B93D
S31508000F80302001F8010B07E0401E1DF80020303222
S31508000F9001F8012B0028F7DCF068B2691044091A39
S31508000FA0F16196F8380000F0140010280DD1716927
S31508000FB0B0694118706A4118F0694118B06A411859
S31508000FC0706B8142BCBF411A316204B0BDE8F0873C
S31508000FD0F8B505460E4617461C46002074B117F8A4
S31508000FE0011BB068A847B06030B1F06A401CF062D7
S31508000FF00020641EF3D1F2BD4FF0FF30F2BD0000B1
S315080010007072696E74665F733A20256E2064697320
S31508001010616C6C6F776564007072696E74663A20ED
S3150800102062616420256E20617267756D656E740055
S315080010307072696E74665F733A2062616420257304
S3150800104020617267756D656E740000007072696E56
S3150800105074665F733A2062616420256C732061723E
S3150800106067756D656E7400000000000000000000E2
S315080010706E616E004E414E00696E6600494E46002E
S315080010803000B1F5807F02D34FF0FF307047017012
S31508001090012070470078401E8041C043C00F70474A
S315080010A01A48704730B45368D418042B09DA41B18A
S315080010B0057804F8015B10F8015B15B15B1C491E45
S315080010C0F3E7536030BC704738B514461D4661B126
S315080010D0FFF7E8FF61686A6B204690476FF00102E8
S315080010E0811A02D0491E03D005E06FF0010032BD17
S315080010F04FF0FF3032BD0021616032BDDA6B104718
S31508001100024BE1E7014BF9E7014870474C00002024
S31508001110140000200278C9B28A421AB11CBF10F81E
S31508001120012FF9E718BF002070470268531C0360B7
S315080011301170704780B500B906A005490B681BB148
S3150800114022220021984701E000F08DFD222002BDF1
S315080011509C010020636F6E73747261696E742068F7
S31508001160616E646C65723A20626164206D657373A2
S315080011706167650000F10103810704D010F8011BBF
S3150800118089B18107FAD10268B2F10131914311F0B0
S31508001190803F04BF50F8042FF6E710F8011B11B181
S315080011A010F8011BFBE7C01A70470000C9B2830795
S315080011B006D0521E22D310F8013B9942F7D11FE000
S315080011C0083A13D302F1040241EA012141EA014136
S315080011D050F8043B121F21BF4B40A3F1013C2CEAF7
S315080011E0030C1CF0803FF3D0C9B2001F083210F878
S315080011F0013B521E28BF91EA030FF8D818BF0120F9
S31508001200401E704780B5FFF74BFF006C02BD00001B
S3150800121062B38B0708D0521E11F8013B00F8013B58
S3150800122000F024808B07F6D1830740F0208000BFAA
S31508001230103A07D330B4B1E83810103AA0E838109D
S31508001240F9D230BC530724BFB1E80810A0E808104B
S3150800125044BF51F8043B40F8043BD20724BF31F899
S31508001260022B20F8022B44BF0B7803707047121F1D
S3150800127017D35B0009D151F8043B20F8023B1B0C3D
S31508001280121F20F8023BF6D20BE051F8043B00F897
S31508001290013B1B0A20F8023B1B0C121F00F8013BFE
S315080012A0F3D238BF121D521E24BF11F8013B00F8B5
S315080012B0013BF8D870470000B3BBD9B1B2F5803FFF
S315080012C07DD2022A1ED98C46B1FBF2F102FB11C36C
S315080012D01B0443EA1043B3FBF2FC02FB1C3380B247
S315080012E040EA0343B3FBF2F002FB103240EA0C403B
S315080012F000237047022A05D98446B0FBF2F002FBA8
S3150800130010C270474AB105D100F0010249085FEAE8
S315080013103000704700220023704700F0A7BC0B007E
S315080013200200002100207047904271EB030CF6D3AF
S31508001330B3F5803F2FD2F0B5B3FA83F7B1FA81F44B
S31508001340A7F10F0E3D1B5340CEF1200602FA0EF20E
S31508001350F3415340B5F10F0746D80F3C2C444140A2
S31508001360C4F12006A040F1414140B1FBF3F603FB6E
S315080013701611A2FB0645001BA94102D2761E80184B
S31508001380594180EA010221FA0EF362FA0EF20021AF
S315080013905A403046F0BD30B4B1FBF3FC03FB1C11D8
S315080013A0A2FB0C45001BA94103D2ACF1010C801825
S315080013B0594130BC02460B46604600217047B2F1DF
S315080013C0807F65D3F0B5B2FA82F7B1FA81F4C7F136
S315080013D00F063D1B22FA06F307F1110EF2412035DE
S315080013E05A40B5F10F07B8D94140C4F12006A040CC
S315080013F0F1414140B1FBF3FC03FB1C11A2FB0C4578
S31508001400001BA94103D2BCF1010C801859410F2FCA
S3150800141012D30F3FC90341EA5041B1FBF3F603FB70
S315080014201611A2FB0645D4EBC030A94102D2761E9E
S315080014308018594146EACC3C07B34140C7F120061B
S31508001440B840F1414140B1FBF3F603FB1611A2FB8C
S315080014500645001BA94102D2761E8018594180EA2A
S31508001460010221FA0EF3C7F1200462FA0EF20CFA11
S3150800147007F05A402CFA04F13043F0BD80EA010225
S3150800148021FA0EF3002162FA0EF260465A40F0BDC8
S315080014908C46B1FBF2F102FB11C31B0243EA10634F
S315080014A0B3FBF2FC02FB1C331B024CEA002043EAA6
S315080014B01063B3FBF2FC02FB1C331B024CEA002050
S315080014C043EA1063B3FBF2FC02FB1C331B024CEA33
S315080014D0002043EA1063B3FBF2FC02FB1C324CEA21
S315080014E00020002370470000B0B581EA030C0CF019
S315080014F0004C40F2FF7515EA11541DBF15EA135743
S31508001500AC42AF4239E0E41923EA455343F4801369
S31508001510C90241F0004141EA505EC7021100A7FB2B
S31508001520020200284FF00000EEFB01204FF00001F8
S31508001530E3FB072118BF42F0010240180021494188
S31508001540E3FB0E01A4F580640F0302D2520040416A
S31508001550494154F101046CDD470872F1004250F12B
S31508001560000051EB0451A1F580115CBF41EA0C0162
S31508001570B0BD4CEA05510020B0BD05EA1357AC4290
S3150800158014BFAF4241E050EA410E1CBF52EA430E77
S3150800159002E061460020B0BD24423C441BD15FEA0C
S315080015A0070EF6D0090302BF01460020AEF1140E5D
S315080015B0B1FA81F7AEEB070401FA07FE0C37C7F15B
S315080015C0200100FA07F7C8404EEA000E23EA455301
S315080015D043F48013A2E733F00043B3FA83F704BF5A
S315080015E0B2FA82FE77440B3FE41BB7F1200E2FBFF9
S315080015F002FA0EF3BB40C7F1200E22FA0EFE38BFE0
S3150800160043EA0E03BA40641C82E750EA410E14BF4F
S3150800161052EA430E6FF000014FF4001717EB430F21
S315080016208ABF194617EB410FB5E74CEA055100206A
S31508001630B0BDD4F10104B4F120070FDAC4F12007D4
S31508001640520828BF42F0010210FA07F501FA07F717
S31508001650E1BF2A43E0403843E1400FE0352C98DCEF
S31508001660C7F1200452EA400220FA07F218BF42F0F6
S31508001670010231FA07F0A1400A43002172F1004243
S3150800168050F1000051EB0C01B0BD000010B5144636
S3150800169000F002F8226010BDC1F30A5343B14A00B4
S315080016A012F5001F28D2A3F2FE32A1EB02517047B1
S315080016B050EA410C20D001F0004C31EA0C01B1FA95
S315080016C081F204BFB0FA80F3D2180B3AB2F12003C4
S315080016D02CBF00FA03F1914041EA0C013EBFC2F16A
S315080016E0200C20FA0CF319439040524240F2FD3385
S315080016F0D21A01EB03517047002270474FF4001CC1
S315080017001CEB410F94BF1CEB430F09E041EA030CA5
S3150800171050EA4C0C52EA0C0C03D2994208BF90428C
S31508001720704714BF8B428242704700004FF4001C7A
S315080017301CEB410F94BF1CEB430F09E041EA030C75
S3150800174050EA4C0C52EA0C0C03D28B4208BF824278
S31508001750704714BF9942904270470000124254D411
S3150800176040F2FF7C1CEA11530FD0634531D09B1819
S3150800177063453CBF01EB0251704701F0004141EA65
S315080017800C510020AFF30080704750EA410320D087
S3150800179001F0004C91EA0C011CD0B1FA81F30B3B25
S315080017A09A420DD9D21A994051EA0C01C3F1200C7C
S315080017B020FA0CFC61449840531C40F2FF7CD7E7A2
S315080017C0914041EA0C01C2F1200C20FA0CF31943AE
S315080017D090407047B0FA80F31533202BE0D3202AC7
S315080017E0EED3203A203B9A4209D9D21A00FA03F1DD
S315080017F041EA0C010020531C40F2FF7CB8E700FACE
S3150800180002F141EA0C0100207047524240F2FF7C87
S315080018101CEA11530DD06345DBD0B2EB030C3CBF79
S31508001820A1EB025170470CF1010221EA035141F480
S31508001830801150EA410CCCD001F0004C352A27DC47
S3150800184030B481EA0C01B2F1200309DAC2F12003AF
S31508001850044601FA03F5D0402843D1409C400CE0E9
S31508001860C3F12002450020FA03F418BF44F001042E
S3150800187021FA03F091400C43002174F1004550F120
S31508001880000051EB0C01244230BC7FF47BAF70475B
S315080018906146002076E70000C1F30A5340F2FE32A3
S315080018A09B1A14DDD3F120034FEAE17208DDC90261
S315080018B041EA505141F00040D840801850407047E6
S315080018C003F2E13010B1D24382F0004070470020A5
S315080018D070470000C11768B14840401AB0FA80F254
S315080018E09040D21CC907C2F5846241EA025202EB53
S315080018F0D02140057047000070B44FF0004591EACA
S31508001900030F40F1B5816B40841A71EB030603D2CD
S31508001910001BB141121973414FF4001C1CEB410F17
S3150800192034BF7CEB430442E00C0DA4EB1356352E72
S315080019304FDC45EAC323DB0A45EAC121C912B6F1E1
S3150800194020050DDD63FA05F6EB4086EA030512422B
S3150800195018BF45F00105C01851F100010CD213E07B
S3150800196062FA06F5F2405540F3415A40B340F34057
S315080019705A408018594107D349085FEA30005FEAA0
S31508001980350528BF45F0010501F58011420875F1B6
S31508001990004250F1000041EB04514E0016F5001FBD
S315080019A070BC38BF70470020090D090570471CEB4D
S315080019B0410F10D252EA43060BD0BCEB410F05D8B3
S315080019C00C0DAB43661E342EB6DD02E0AB43801821
S315080019D0594170BC704770BC70470000F0B540F2C2
S315080019E0FF7581EA030C0CF0004C15EA11541DBF73
S315080019F015EA1357AC42AF42E5E0BC41C1F3130107
S31508001A00C3F31303801A994143F4801304D2641E66
S31508001A104000494180185941C90241EA5051B1FB79
S31508001A20F3F603FB1611A2FB0675D7EBC020A941F6
S31508001A3002D2761E80185941C90241EA5051B1FBBB
S31508001A40F3FE03FB1E11A2FB0E75D7EBC020A941BE
S31508001A5003D2AEF1010E80185941890241EA90512C
S31508001A60760546EA8E2EB1FBF3F603FB1611A2FBAA
S31508001A700675D7EB8020A94102D2761E80185941F7
S31508001A80C90241EA50514EEA060EB1FBF3F603FBD2
S31508001A901611A2FB0675D7EBC020A94102D2761E05
S31508001AA080185941C90241EA5051B1FBF3F703FBCB
S31508001AB01711A2FB0735D3EBC020A94167F1000730
S31508001AC00CBF004247F0010766F3D5274FEA1E31DF
S31508001AD0B80814F5806412DDBD0775F1004250EBB5
S31508001AE00E5051EB045111F5801F5CBF41EA0C0101
S31508001AF0F0BD4CF07F6141F0E0410020F0BDBD072C
S31508001B006D0840EA0E5041F48011D4F10104B4F195
S31508001B1020060ADAC4F120060200E04001FA06F3BC
S31508001B20E1401843B24015430EE0342C13DCC6F1ED
S31508001B30200445EA40056D0820FA06F2154321FA05
S31508001B4006F0A1400D43002175F1004250F1000056
S31508001B5051EB0C01F0BD00205FEA0C01F0BDCFB9D6
S31508001B6092185B41B3FA83F704BFB2FA82F6BF193B
S31508001B700B3FB7F120062FBF02FA06F3BB40C7F1A9
S31508001B80200622FA06F638BF3343BA401CB1E419D8
S31508001B90641E33E77F4231F00041B1FA81F404BF95
S31508001BA0B0FA80F6A4190B3CB4F120062FBF00FA50
S31508001BB006F1A140C4F1200620FA06F638BF3143E3
S31508001BC0A0403C1B1AE7AC421ABF05EA1357AF42BE
S31508001BD012E050EA41061CBF52EA4306BFE750EA44
S31508001BE04107304661461CBF41EA0551F0BD52EA3D
S31508001BF0430C08BFC143F0BD00204FF4001616EB96
S31508001C00410F98BF16EB430F08BF16EB410F24BFD1
S31508001C10C14305E016EB430F0CBF61464CEA05517C
S31508001C20F0BD0000400D491840EA81200CD2490D4C
S31508001C30A1F58061491C40F0004005DBD1F11F0188
S31508001C4054BFC840C017704700207047014648B1C6
S31508001C50B0FA80F18840C91CC1F58461090501EB19
S31508001C60D02140057047012000F0B6B87047000043
S31508001C70841A71EB030604D26E40001BB141121997
S31508001C8073414FF4001C1CEB410F34BF7CEB430639
S31508001C9082E00C0DA4EB1356362E7BDC012E45EAAA
S31508001CA0C32341DC43EA525312BFD20292025B08B5
S31508001CB0240545EAC12141EA5051D2EBC020994199
S31508001CC025D407D1B0FA80F610FA06F162D00020C2
S31508001CD0203608E0B1FA81F6B140C6F1200220FAB2
S31508001CE002F21143B0404FEAF474B4EB465434F0B0
S31508001CF001064FEA74040AD8D6F50016760D04F0E4
S31508001D000044F04061FA06F25040F1404840C00AEB
S31508001D1040EA415021F0004128BF5FEA500550F1E2
S31508001D20000044EBD12135E0DB0A45EAC121C90AA6
S31508001D30B6F120050EDD42EA0242120CC5F1200674
S31508001D4003FA06F6EB4042EA06056D42984161F150
S31508001D5000010DE062FA06F5F240554063FA06FC0A
S31508001D6082EA0C02F3405A406D42904161EB03014E
S31508001D7011F4801F05D1641E620502D06D00404132
S31508001D80494121F48011430875F1004350F10000E0
S31508001D9041EB045170BC70471CEB410F15D223F080
S31508001DA0004352EA43060BD04FEA4C0CBCEB410FFA
S31508001DB004D80C0D661E342EB7DDEBE7801A994160
S31508001DC050EA410608BF0021E4E708BF1CEB430FB1
S31508001DD028BF6FF00001DDE780B5AFF30080024A47
S31508001DE011001820ABBEFBE72600020010B5040060
S31508001DF0DFF8300284420AD101214FF4007000F066
S31508001E00BCF900214FF4007000F0B7F91CE0DFF8C8
S31508001E10180284420AD101214FF4806000F0ADF91E
S31508001E2000214FF4806000F0A8F90DE0DFF8FC010E
S31508001E30844209D101214FF4004000F09EF90021A7
S31508001E404FF4004000F099F910BDF0B400230024C7
S31508001E504568DFF8DC2115400A680E7952EA062241
S31508001E60154345608668DFF8CC211640CF688A6836
S31508001E7017434A7957EA42073E438660C76A37F4EA
S31508001E8070070A7C521E14432200D2B257EA025740
S31508001E90C762F0BC70470A00D2B2002A04D0826832
S31508001EA052F00102826003E08268520852008260A2
S31508001EB07047816851F0080181607047010000226F
S31508001EC08868000701D5012000E00020C0B27047ED
S31508001ED0816851F00401816070470100002288681A
S31508001EE0400701D5012000E00020C0B270470A0073
S31508001EF0D2B2002A04D0826852F4A002826003E0BB
S31508001F00826832F4A002826070472DE9F04100270A
S31508001F105FF0000C0C00E4B20A2C16DBC568072635
S31508001F20B1F10A0E032404FB0EFE16FA0EFE35EA7C
S31508001F300E0598465FFA88F8B1F10A060324664347
S31508001F4018FA06F63543C56011E005690726032425
S31508001F5004FB01F416FA04F4A5439E465FFA8EFEC6
S31508001F60032606FB01F61EFA06F63543056114003C
S31508001F70E4B2072C19DA476B5FF01F0CB2F1010EB9
S31508001F80052404FB0EFE1CFA0EFE37EA0E078846E9
S31508001F905FFA88F8B2F1010C052404FB0CFC18FA68
S31508001FA00CFC5CEA0707476336E01400E4B20D2C24
S31508001FB019DA076B5FF01F0CB2F1070E052404FB54
S31508001FC00EFE1CFA0EFE37EA0E0788465FFA88F8F8
S31508001FD0B2F1070C052404FB0CFC18FA0CFC5CEAAD
S31508001FE00707076318E0C76A5FF01F0CB2F10D0E0A
S31508001FF0052404FB0EFE1CFA0EFE37EA0E07884679
S315080020005FFA88F8B2F10D0C052404FB0CFC18FAEB
S315080020100CFC5CEA0707C762BDE8F081C06C80B2B9
S31508002020704700000024014000280140003C0140A0
S31508002030FFFEF0FFFDF7F1FF10B402000023106861
S315080020400C00E4B2204201D0012000E00020C0B21A
S3150800205010BC70470021514A126832F440420243CC
S315080020604E4B1A6070472DE9F04F002500220021DB
S3150800207000234A4C246814F00C042600002E04D0D1
S31508002080042E05D0082E06D026E0454D056025E02D
S31508002090434D056022E0414D2D6815F470153F4EFD
S315080020A0366816F480363100AD0CAD1C2A000029BE
S315080020B004D13C4D05FB02F505600CE0374D2D6853
S315080020C0AD0304D5374D05FB02F5056003E0344D35
S315080020D005FB02F5056001E0314D05602F4D2D68C1
S315080020E015F0F0052D09304E765D0768F740476014
S315080020F02A4F3F6817F4E0673F0ADFF8ACC01CF8C0
S3150800210007C0D0F804E03EFA0CFEC0F808E0DFF895
S315080021108CE0DEF800E01EF4605E5FEADE2EDFF893
S31508002120888018F80E80D0F8049039FA08F9C0F8B3
S315080021300C90DFF86890D9F8009019F440495FEAE6
S315080021409939DFF868A01AF809A0D0F80CB0BBFBDB
S31508002150FAFBC0F810B0BDE8F08F0A00D2B2002A28
S3150800216005D0134A12680243114B1A6004E0104A5C
S31508002170126882430E4B1A6070470A00D2B2002AD0
S3150800218005D00C4A126802430A4B1A6004E0094A51
S3150800219012688243074B1A60704700000410024019
S315080021A000127A0000093D000000002010000020FF
S315080021B0181002400C10024041F61F407B49086087
S315080021C007207B49086070477A480068092807D3C2
S315080021D000207849086078480068401C76490860FD
S315080021E076480068401C7549086072480068401CBB
S315080021F0704908607047F8B504000D0017001E0006
S315080022002800ADF8000038008DF8030030008DF87E
S3150800221002006946200000F0DFF8F1BD80B5012113
S315080022200420FFF79AFF01210420FFF7A6FF0021EB
S315080022300420FFF7A2FF0323002201216048FFF7CD
S31508002240DAFF0323002202215D48FFF7D4FF0323A8
S31508002250102204215A48FFF7CEFF032318224FF411
S3150800226000715748FFF7C7FF032348224FF48061E0
S315080022705348FFF7C0FF01210820FFF76EFF012131
S315080022800820FFF77AFF00210820FFF776FF4D4860
S31508002290006850F001004B4908605FF000704A4939
S315080022A008600323102202214848FFF7A4FF0323EE
S315080022B0102204214548FFF79EFF03231022082118
S315080022C04248FFF798FF0323102210213F48FFF7E3
S315080022D092FF032310224FF400613C48FFF78BFF5F
S315080022E001BD00B585B04FF40040FFF7B3FE0121EC
S315080022F04FF40070FFF731FF3548FFF777FD0020F0
S31508002300009000208DF8040000208DF805005FF489
S31508002310602002900020039001208DF81000694685
S315080023202B48FFF792FD01212948FFF7B4FD2848FD
S31508002330FFF7BFFD2648FFF7C1FD0028FAD124485C
S31508002340FFF7C6FD2248FFF7C8FD0028FAD105B0F9
S3150800235000BD70B504000D0001261E48007800284F
S3150800236002D001280FD01DE0072301222900C9B297
S315080023701748FFF7CAFD01211548FFF7B8FD0120E8
S31508002380144908700EE002211148FFF755FE00288F
S3150800239008D00F48FFF742FE206000200D4908705C
S315080023A0002006003000C0B270BD000014E000E056
S315080023B010E000E090010020940100209801002020
S315080023C0000801401810024004000140000C0140BA
S315080023D000240140A2010020F0B5002200230024B9
S315080023E000250026002791F803C01CF00F0C91F871
S315080023F003E05FEACE6E02D58A7852EA0C0C0A78B8
S31508002400120626D00268160000221400082C1FD2D5
S315080024100122A24015000A882A401300AB4215D1B2
S31508002420A20015000F22AA401700BE431CFA05F2A7
S315080024301643CA78282A03D10122A240426105E040
S31508002440CA78482A02D10122A2400261641CDDE74B
S3150800245006600A88B2F5807F33DB426816000022E0
S315080024601400082C2CD25FF0010E14F108021EFA93
S3150800247002FE75460A882A401300AB421ED1A20006
S3150800248015000F22AA401700BE431CFA05F2164390
S31508002490CA78282A07D15FF0010E14F108021EFA3D
S315080024A002FEC0F814E0CA78482A07D15FF0010E88
S315080024B014F108021EFA02FEC0F810E0641CD0E708
S315080024C04660F0BD38B50400002500216248FFF7D4
S315080024D040FF00280BD1614801685F480068411831
S315080024E05E4801605E480088401C5D4908805C487B
S315080024F0008864280DD1594800686421B0FBF1F0C2
S3150800250020600020554908600020554908800020B1
S3150800251000E00120C0B232BD00B585B0FFF74CFE21
S31508002520FFF77CFE6846FFF79EFDFFF7DAFE4D488B
S31508002530006850F002004B4908604A48006850F0AD
S315080025401000484908604848FFF7BCFF002847D1F3
S315080025504548006800F0A0F800F0ACF80022434BAC
S31508002560FFF73CFA0022424BFEF7BEFF00F0C6F822
S31508002570404908603F4800683F4900F0F3F800F01A
S3150800258099F800223D4BFFF729FA00F0B7F83C49C5
S31508002590086000203B4908703948006800F08AF84E
S315080025A002000B003849374800F04EF90020374939
S315080025B00860344835490968405C002805D0334826
S315080025C00068401C31490860F3E70D202D492F4A61
S315080025D0126888540D202B492C4A126811444870F9
S315080025E02B4800F055F9B0F57A7F31D3284800F02A
S315080025F04BF928480078002815D00020254908708E
S315080026001848006850F00200164908601548006826
S3150800261050F01000134908601248006850F008008E
S315080026201049086014E001201A4908700D4800682E
S3150800263050F400300B4908600A48006850F48010CE
S31508002640084908600748006850F4002005490860F2
S31508002650002000F025F976E7880100208401002093
S31508002660A0010020100C01408C0100200000B040A1
S3150800267000C8A940780100200000D4C30000194012
S315080026807C01002060010020942E000880010020B3
S3150800269074010020A301002000280AD0B0FA80F1B6
S315080026A08840D1F19D01C905020672F1004241EB4D
S315080026B010207047C0F3C75181B1FF2906D0C11059
S315080026C0400721F0E04101F16051704741020CBF1B
S315080026D040F4E0016FF000410020704700F000412F
S315080026E000020AD0B0FA80FC00FA0CF001F1605141
S315080026F0A1EB0C5101EBD0214005704701F00042D7
S315080027008B1AA3F16051B1F5801F0ADBB1F17F6F17
S315080027101FD242EAC102C10071F1004142EB50707A
S3150800272070470B15C3F10903212B10D2890241EA20
S31508002730905180020128494141F0004121FA03F0F5
S31508002740C3F12003994071F10041504170471000D0
S3150800275070476FF0000013EB103F5CBF000E42EAB3
S31508002760C050704790EA010F40F11C8181F000418A
S31508002770431A4FF000423EBF5340C01AC91800BF63
S31508002780D3095FEAD05C13EB400F34BFB3EB410FBC
S3150800279040E07CEBD1530CD342EA012122D8D1EB9D
S315080027A0402009D3400A28BF5FEA500140EBCC50CD
S315080027B07047401A15D04002B0FA80F2521C904079
S315080027C0400A4FEA3C23B3EB026384BF00EB730075
S315080027D007E040F400001A16DB07C2F10102D040F8
S315080027E018437047182BFCDC31FA03F202FA03F39C
S315080027F0591A38BF42F00102D2EB40203CBF4000D4
S31508002800ACF1010C5FEACC5CC20572F100414CEBFD
S315080028105020704713EB400F0FD2C94209D0ACEBDA
S31508002820D153022B03DB4902172BDDDD7047914399
S31508002830401AC042D5D10020704713EB410FD0D3C0
S315080028406FF00000704700000CB430B583B0044642
S3150800285006A802900A4600250194009502AB01A934
S31508002860084878441E30FDF741FC01990D70002890
S315080028704EBF04460198041B204603B030BC5DF8E1
S315080028800CFB00BFA7E8FFFF044909680160704711
S315080028900100024800680968401A70479401002040
S315080028A010B5040039492200D2B24C20424301EB4C
S315080028B00200418A354A2300DBB24C20434302EB2F
S315080028C00300808A814225D02000C0B2002805D0A6
S315080028D0022818D009D303281CD01BE0012240F295
S315080028E027712C4800F098F814E02B4801884FF619
S315080028F0FB70014028480180012240F227712748D1
S3150800290000F08AF806E0012240F22771244800F018
S3150800291083F8FFE710BD80B51E4800F0B9F81A49DC
S315080029201A4AD28888541948C088401C1749C88052
S315080029301648807910F03F001449C88001BD80B55B
S315080029401248408A1149898A884213D010480F498B
S31508002950898A415C89B20F4800F096F80B48808A4C
S31508002960401C0A4988820948007D10F03F00074943
S31508002970888207E0002240F22771064800F04CF8EA
S3150800298000F001F801BD7047E00000209400002027
S3150800299020010020003801400C440040004400405B
S315080029A000480040421A3CBF801A89184FF0004C74
S315080029B0C0F3C752FF2A24D0C1F3C75313B3D21AA0
S315080029C0D2F1190327DD4CEA01214CFA03F321EA77
S315080029D00303D140C20D4CEA0020401834BF20EA58
S315080029E00C004CEA5000D20553EA006373EB0C0C5A
S315080029F052EB1020420012F1807F38BF7047C00D9D
S31508002A00C0057047490212BF9A4200EB5120F8E709
S31508002A10D2F11703D9D570472DE9F04100230025D7
S31508002A2000275FF0000E0C00A4B240F66A16B44206
S31508002A3080460C00E4B26409E4B20E00B6B216F0A1
S31508002A401F065FF0010C1CFA06FC012C02D118F1D6
S31508002A500C0806E0022C02D118F1100801E018F162
S31508002A6014081300DBB2002B06D0D8F800305CEA55
S31508002A700303C8F8003005E0D8F8003033EA0C0341
S31508002A80C8F80030BDE8F081CA05D20D82807047CB
S31508002A908088C005C00D7047F0B4040000270020E8
S31508002AA0002200260B009BB240F66A15AB420D00C9
S31508002AB0EDB26D09EDB20B009BB213F01F035FF088
S31508002AC0010C1CFA03F3012D02D1A089034006E08C
S31508002AD0022D02D1208A034001E0A08A03400A00A1
S31508002AE092B2120A92B2012010FA02F2208802402B
S31508002AF0002B03D0002A01D0012000E00020C0B23C
S31508002B00F0BC704770B4002200240B009BB240F65C
S31508002B106A15AB420B009BB21B0A01259D402E008D
S31508002B20B6B2F643068070BC7047000080B54E48C2
S31508002B30006850F001004C4908604C4801684C4850
S31508002B4001404A480160484801684A4801404648E9
S31508002B5001604548006830F48020434908604348CE
S31508002B60006830F4FE00414908605FF41F004249DE
S31508002B70086000F005F85FF000604049086001BD94
S31508002B8080B500F001F801BD82B000200190002058
S31508002B9000903548006850F4803033490860324860
S31508002BA0006810F4003000900198401C01900098CD
S31508002BB0002803D10198B0F5A06FF0D12A48006823
S31508002BC0800302D50120009001E0002000900098C3
S31508002BD0012847D12A48006850F0100028490860A3
S31508002BE0274800688008800025490860244800684E
S31508002BF050F00200224908601C4800681B4908601A
S31508002C001A480068194908601848006850F4806036
S31508002C10164908601548006830F47C1013490860A6
S31508002C201248006850F4E810104908600E48006819
S31508002C3050F080700C4908600B4800688001FBD58D
S31508002C400A48006880088000084908600748006844
S31508002C5050F00200054908600448006810F00C00AE
S31508002C600828F9D102B0704700100240041002404B
S31508002C700000FFF8FFFFF6FE0810024008ED00E02E
S31508002C8000200240000000000102030401020304C0
S31508002C900607080902040608C42E0008C42E000800
S31508002CA0C42E0008C42E0008C42E0008C42E00082E
S31508002CB0C42E0008FFFFFFFFFFFFFFFFC62E000818
S31508002CC0C42E0008C42E0008FFFFFFFFFFFF000008
S31508002CD0C82E0008010000001400002000000000B3
S31508002CE000000000000000000000000000000000D6
S31508002CF000000000000000000000000000000000C6
S31508002D00000000009510000800000000831000086D
S31508002D1001000000000000007047FEE7FEE7FEE73E
S31508002D20FEE770477047704780B5FFF74DFA01BD5B
S31508002D3070477047704770477047704780B540F2D4
S31508002D4025511748FFF7A8FE012807D140F225515B
S31508002D501348FFF7D7FEFFF7DEFD15E040F22771AF
S31508002D600F48FFF799FE012802D1FFF7E8FD0BE0AF
S31508002D7040F226610A48FFF78FFE012804D140F287
S31508002D8026610748FFF7BEFE60210548FFF7BAFE31
S31508002D904FF458710248FFF7B5FE01BD0000000068
S31508002DA0003801407047704719E050F8042BD307E4
S31508002DB044BFA9F101039A18091F0023042942F800
S31508002DC0043BF9D25FEA817C134604D54FF0000C28
S31508002DD0A2F800C09B1CC90744BF0021197050F80F
S31508002DE0041B0029E1D1704710B450F8041B79B1CF
S31508002DF00268436802440830DC0744BFA9F10104AD
S31508002E00E31852F8044B43F8044B091FF9D1ECE7D1
S31508002E1010BC704710B5074979441831064C7C44F4
S31508002E20163404E00A68081D114488470146A14281
S31508002E30F8D110BD08000000280000006DFFFFFF54
S31508002E401001000094000020000000009DFFFFFF15
S31508002E509400000030FEFFFF000000200000000084
S31508002E6000F00DF8002801D0FFF7D4FFAFF300807B
S31508002E700020AFF30080FFF74FFB00F002F80120B7
S31508002E80704700F001B8000007463846FEF7A4FF71
S31508002E90FBE7000074656D702061637175613A2007
S31508002EA025322E3166000000014880470148004758
S31508002EB02D2B0008B92E0008AFF30080AFF3008071
S31508002EC0FFF7CEFF00002E004300FFF7FEBFFFF717
S31508002ED0FEBFFFF7FEBFFFF7FEBFFFF7FEBFFFF718
S31508002EE0FEBFFFF7FEBFFFF7FEBFFFF7FEBFFFF708
S31508002EF0FEBFFFF7FEBFFFF7FEBFFFF7FEBFFFF7F8
S31508002F00FEBFFFF7FEBFFFF7FEBFFFF7FEBFFFF7E7
S31508002F10FEBFFFF7FEBFFFF7FEBFFFF7FEBFFFF7D7
S31508002F20FEBFFFF7FEBFFFF7FEBFFFF7FEBFFFF7C7
S31508002F30FEBFFFF7FEBFFFF7FEBFFFF7FEBFFFF7B7
S31508002F40FEBFFFF7FEBFFFF7FEBFFFF7FEBFFFF7A7
S30708002F50FEBFB4
S70508002EB90B
